{
  "contractName": "Faucet",
  "abi": [
    {
      "inputs": [],
      "name": "numOfFounders",
      "outputs": [
        {
          "internalType": "uint256",
          "name": "",
          "type": "uint256"
        }
      ],
      "stateMutability": "view",
      "type": "function",
      "constant": true
    },
    {
      "inputs": [],
      "name": "owner",
      "outputs": [
        {
          "internalType": "address",
          "name": "",
          "type": "address"
        }
      ],
      "stateMutability": "view",
      "type": "function",
      "constant": true
    },
    {
      "inputs": [],
      "name": "test3",
      "outputs": [
        {
          "internalType": "uint256",
          "name": "",
          "type": "uint256"
        }
      ],
      "stateMutability": "pure",
      "type": "function",
      "constant": true
    },
    {
      "inputs": [],
      "name": "testNum",
      "outputs": [
        {
          "internalType": "uint256",
          "name": "",
          "type": "uint256"
        }
      ],
      "stateMutability": "view",
      "type": "function",
      "constant": true
    },
    {
      "stateMutability": "payable",
      "type": "receive",
      "payable": true
    },
    {
      "inputs": [],
      "name": "emitLog",
      "outputs": [
        {
          "internalType": "bytes32",
          "name": "",
          "type": "bytes32"
        }
      ],
      "stateMutability": "pure",
      "type": "function",
      "constant": true
    },
    {
      "inputs": [],
      "name": "addFunds",
      "outputs": [],
      "stateMutability": "payable",
      "type": "function",
      "payable": true
    },
    {
      "inputs": [],
      "name": "test1",
      "outputs": [],
      "stateMutability": "nonpayable",
      "type": "function"
    },
    {
      "inputs": [],
      "name": "test2",
      "outputs": [],
      "stateMutability": "nonpayable",
      "type": "function"
    },
    {
      "inputs": [
        {
          "internalType": "uint256",
          "name": "withdrawAmount",
          "type": "uint256"
        }
      ],
      "name": "withdraw",
      "outputs": [],
      "stateMutability": "payable",
      "type": "function",
      "payable": true
    },
    {
      "inputs": [],
      "name": "getAllFunders",
      "outputs": [
        {
          "internalType": "address[]",
          "name": "",
          "type": "address[]"
        }
      ],
      "stateMutability": "view",
      "type": "function",
      "constant": true
    },
    {
      "inputs": [
        {
          "internalType": "uint8",
          "name": "index",
          "type": "uint8"
        }
      ],
      "name": "getFounderAtIndex",
      "outputs": [
        {
          "internalType": "address",
          "name": "",
          "type": "address"
        }
      ],
      "stateMutability": "view",
      "type": "function",
      "constant": true
    }
  ],
  "bytecode": "0x608060405234801561001057600080fd5b50336000806101000a81548173ffffffffffffffffffffffffffffffffffffffff021916908373ffffffffffffffffffffffffffffffffffffffff1602179055506103e8600181905550610b3b806100696000396000f3fe6080604052600436106100a05760003560e01c80636fbbb55d116100645780636fbbb55d1461015e5780638da5cb5b14610189578063a26759cb146101b4578063ae28f1ed146101be578063f42c13bf146101e9578063ffd4456314610214576100a7565b80630a8e8e01146100ac57806317855fbe146100d75780632e1a7d4d1461011457806366e41cb7146101305780636b59084d14610147576100a7565b366100a757005b600080fd5b3480156100b857600080fd5b506100c161023f565b6040516100ce9190610909565b60405180910390f35b3480156100e357600080fd5b506100fe60048036038101906100f99190610750565b610248565b60405161010b9190610871565b60405180910390f35b61012e60048036038101906101299190610727565b610288565b005b34801561013c57600080fd5b5061014561031f565b005b34801561015357600080fd5b5061015c6103af565b005b34801561016a57600080fd5b5061017361043f565b604051610180919061088c565b60405180910390f35b34801561019557600080fd5b5061019e610585565b6040516101ab9190610871565b60405180910390f35b6101bc6105a9565b005b3480156101ca57600080fd5b506101d36106c9565b6040516101e09190610909565b60405180910390f35b3480156101f557600080fd5b506101fe6106cf565b60405161020b91906108ae565b60405180910390f35b34801561022057600080fd5b506102296106f7565b6040516102369190610909565b60405180910390f35b60006064905090565b6000600460008360ff16815260200190815260200160002060009054906101000a900473ffffffffffffffffffffffffffffffffffffffff169050919050565b8067016345785d8a00008111156102d4576040517f08c379a00000000000000000000000000000000000000000000000000000000081526004016102cb906108e9565b60405180910390fd5b3373ffffffffffffffffffffffffffffffffffffffff166108fc839081150290604051600060405180830381858888f1935050505015801561031a573d6000803e3d6000fd5b505050565b60008054906101000a900473ffffffffffffffffffffffffffffffffffffffff1673ffffffffffffffffffffffffffffffffffffffff163373ffffffffffffffffffffffffffffffffffffffff16146103ad576040517f08c379a00000000000000000000000000000000000000000000000000000000081526004016103a4906108c9565b60405180910390fd5b565b60008054906101000a900473ffffffffffffffffffffffffffffffffffffffff1673ffffffffffffffffffffffffffffffffffffffff163373ffffffffffffffffffffffffffffffffffffffff161461043d576040517f08c379a0000000000000000000000000000000000000000000000000000000008152600401610434906108c9565b60405180910390fd5b565b6060600060025467ffffffffffffffff811115610485577f4e487b7100000000000000000000000000000000000000000000000000000000600052604160045260246000fd5b6040519080825280602002602001820160405280156104b35781602001602082028036833780820191505090505b50905060005b60025481101561057d576004600082815260200190815260200160002060009054906101000a900473ffffffffffffffffffffffffffffffffffffffff16828281518110610530577f4e487b7100000000000000000000000000000000000000000000000000000000600052603260045260246000fd5b602002602001019073ffffffffffffffffffffffffffffffffffffffff16908173ffffffffffffffffffffffffffffffffffffffff16815250508080610575906109c1565b9150506104b9565b508091505090565b60008054906101000a900473ffffffffffffffffffffffffffffffffffffffff1681565b6000339050600360008273ffffffffffffffffffffffffffffffffffffffff1673ffffffffffffffffffffffffffffffffffffffff16815260200190815260200160002060009054906101000a900460ff166106c657600060026000815480929190610614906109c1565b9190505590506001600360008473ffffffffffffffffffffffffffffffffffffffff1673ffffffffffffffffffffffffffffffffffffffff16815260200190815260200160002060006101000a81548160ff021916908315150217905550816004600083815260200190815260200160002060006101000a81548173ffffffffffffffffffffffffffffffffffffffff021916908373ffffffffffffffffffffffffffffffffffffffff160217905550505b50565b60015481565b60007f48656c6c6f20576f726c64000000000000000000000000000000000000000000905090565b60025481565b60008135905061070c81610ad7565b92915050565b60008135905061072181610aee565b92915050565b60006020828403121561073957600080fd5b6000610747848285016106fd565b91505092915050565b60006020828403121561076257600080fd5b600061077084828501610712565b91505092915050565b60006107858383610791565b60208301905092915050565b61079a8161096e565b82525050565b6107a98161096e565b82525050565b60006107ba82610934565b6107c4818561094c565b93506107cf83610924565b8060005b838110156108005781516107e78882610779565b97506107f28361093f565b9250506001810190506107d3565b5085935050505092915050565b61081681610980565b82525050565b600061082960218361095d565b915061083482610a39565b604082019050919050565b600061084c60218361095d565b915061085782610a88565b604082019050919050565b61086b816109aa565b82525050565b600060208201905061088660008301846107a0565b92915050565b600060208201905081810360008301526108a681846107af565b905092915050565b60006020820190506108c3600083018461080d565b92915050565b600060208201905081810360008301526108e28161081c565b9050919050565b600060208201905081810360008301526109028161083f565b9050919050565b600060208201905061091e6000830184610862565b92915050565b6000819050602082019050919050565b600081519050919050565b6000602082019050919050565b600082825260208201905092915050565b600082825260208201905092915050565b60006109798261098a565b9050919050565b6000819050919050565b600073ffffffffffffffffffffffffffffffffffffffff82169050919050565b6000819050919050565b600060ff82169050919050565b60006109cc826109aa565b91507fffffffffffffffffffffffffffffffffffffffffffffffffffffffffffffffff8214156109ff576109fe610a0a565b5b600182019050919050565b7f4e487b7100000000000000000000000000000000000000000000000000000000600052601160045260246000fd5b7f6f6e6c79206f776e65722063616e2063616c6c20746869732066756e6374696f60008201527f6e00000000000000000000000000000000000000000000000000000000000000602082015250565b7f43616e6e6f74207769746864726177206d6f7265207468656e20302e3120455460008201527f4800000000000000000000000000000000000000000000000000000000000000602082015250565b610ae0816109aa565b8114610aeb57600080fd5b50565b610af7816109b4565b8114610b0257600080fd5b5056fea2646970667358221220a03d8185fa537cbaac54bb114246fb0db003bfc3fd57ac32e8d35d64c66c037264736f6c63430008040033",
  "immutableReferences": {},
  "source": "// SPDX-License-Identifier: MIT \r\npragma solidity >=0.4.22 <0.9.0;\r\n\r\nimport \"./Owned.sol\";\r\nimport \"./Logger.sol\";\r\nimport \"./IFaucet.sol\";\r\n\r\ncontract Faucet is Owned, Logger, IFaucet {\r\n    uint public numOfFounders;\r\n\r\n    mapping(address => bool) private funders;\r\n    mapping(uint => address) private lutFunders;\r\n\r\n    modifier limitWithdraw(uint withdrawAmount) {\r\n        require(\r\n            withdrawAmount <= 100000000000000000, \r\n                \"Cannot withdraw more then 0.1 ETH\"\r\n        );\r\n        _;\r\n    }\r\n\r\n    //this is a special function\r\n    //it's called when you make a tx that doesn't specify\r\n    //function name to call\r\n\r\n    //External function are part of the contract interface\r\n    //which means they can be called via contracts and other tx\r\n\r\n    receive() external payable {}\r\n\r\n    function emitLog() public override pure returns (bytes32) {\r\n        return \"Hello World\";\r\n    }\r\n\r\n    // function transerOwnership(address newOwner) external onlyOwner() {\r\n    //     owner = newOwner;\r\n    // }\r\n\r\n    // private -> can be accesible only within the smart contract\r\n    // internal -> can be accesible withing smart contract and also derived smart contract\r\n\r\n    function addFunds() override external payable {\r\n        address funder = msg.sender;\r\n\r\n        if (!funders[funder]) {\r\n            uint index = numOfFounders++;\r\n            funders[funder]= true;\r\n            lutFunders[index] = funder;\r\n        }\r\n    }\r\n\r\n    function test1() external onlyOwner {\r\n        //some managing stuff that only admin should have access to\r\n    }\r\n\r\n    function test2() external onlyOwner {\r\n        //some managing stuff that only admin should have access to\r\n    }\r\n\r\n    function withdraw (uint withdrawAmount) override external payable limitWithdraw(withdrawAmount) {\r\n        payable(msg.sender).transfer(withdrawAmount);\r\n    }\r\n\r\n    function getAllFunders() external view returns(address[] memory) {\r\n        address[] memory _funders = new address[](numOfFounders);\r\n        \r\n        for (uint i = 0; i < numOfFounders; i++) {\r\n            _funders[i] = lutFunders[i];\r\n        }\r\n\r\n        return _funders;\r\n    }\r\n\r\n    function getFounderAtIndex(uint8 index) external view returns(address) {\r\n        // address[] memory _funders = getAllFunders();\r\n        return lutFunders[index];\r\n    }\r\n}\r\n//Block info\r\n//Nonce - a hash that when comibined with the minHash proofs that \r\n//the block has gone through proof of owrk\r\n//8byts => 64bits\r\n\r\n//pure, view - read-only call, no gas fee\r\n//view - function is the function that will not alter the storage state in any way\r\n//pure - even more strict, indicating that it won't even read the storage state\r\n\r\n//transactions - require gas fees, can generate state changes\r\n\r\n//to talk to the node on the network you can make JSON-RPC http calls\r\n\r\n//public function can be called from inside the smart contract, while external only from outside\r\n",
  "sourcePath": "C:\\Users\\ernab\\Desktop\\coding\\online-courses\\web3\\solidity\\faucet\\contracts\\FaucetContract.sol",
  "compiler": {
    "name": "solc",
    "version": "0.8.4+commit.c7e474f2.Emscripten.clang"
  },
  "schemaVersion": "3.4.16",
  "updatedAt": "2025-06-12T18:29:23.927Z",
  "networkType": "ethereum",
  "devdoc": {
    "kind": "dev",
    "methods": {},
    "version": 1
  },
  "userdoc": {
    "kind": "user",
    "methods": {},
    "version": 1
  }
}