{
  "contractName": "Faucet",
  "abi": [
    {
      "inputs": [],
      "name": "numOfFounders",
      "outputs": [
        {
          "internalType": "uint256",
          "name": "",
          "type": "uint256"
        }
      ],
      "stateMutability": "view",
      "type": "function",
      "constant": true
    },
    {
      "stateMutability": "payable",
      "type": "receive",
      "payable": true
    },
    {
      "inputs": [],
      "name": "addFunds",
      "outputs": [],
      "stateMutability": "payable",
      "type": "function",
      "payable": true
    },
    {
      "inputs": [],
      "name": "getAllFunders",
      "outputs": [
        {
          "internalType": "address[]",
          "name": "",
          "type": "address[]"
        }
      ],
      "stateMutability": "view",
      "type": "function",
      "constant": true
    },
    {
      "inputs": [
        {
          "internalType": "uint8",
          "name": "index",
          "type": "uint8"
        }
      ],
      "name": "getFounderAtIndex",
      "outputs": [
        {
          "internalType": "address",
          "name": "",
          "type": "address"
        }
      ],
      "stateMutability": "view",
      "type": "function",
      "constant": true
    }
  ],
  "bytecode": "0x608060405234801561001057600080fd5b50610615806100206000396000f3fe6080604052600436106100435760003560e01c806317855fbe1461004f5780636fbbb55d1461008c578063a26759cb146100b7578063ffd44563146100c15761004a565b3661004a57005b600080fd5b34801561005b57600080fd5b50610076600480360381019061007191906103aa565b6100ec565b6040516100839190610476565b60405180910390f35b34801561009857600080fd5b506100a161012c565b6040516100ae9190610491565b60405180910390f35b6100bf610271565b005b3480156100cd57600080fd5b506100d661038f565b6040516100e391906104b3565b60405180910390f35b6000600260008360ff16815260200190815260200160002060009054906101000a900473ffffffffffffffffffffffffffffffffffffffff169050919050565b60606000805467ffffffffffffffff811115610171577f4e487b7100000000000000000000000000000000000000000000000000000000600052604160045260246000fd5b60405190808252806020026020018201604052801561019f5781602001602082028036833780820191505090505b50905060005b600054811015610269576002600082815260200190815260200160002060009054906101000a900473ffffffffffffffffffffffffffffffffffffffff1682828151811061021c577f4e487b7100000000000000000000000000000000000000000000000000000000600052603260045260246000fd5b602002602001019073ffffffffffffffffffffffffffffffffffffffff16908173ffffffffffffffffffffffffffffffffffffffff1681525050808061026190610550565b9150506101a5565b508091505090565b6000339050600160008273ffffffffffffffffffffffffffffffffffffffff1673ffffffffffffffffffffffffffffffffffffffff16815260200190815260200160002060009054906101000a900460ff1661038c5760008060008154809291906102db90610550565b91905055905060018060008473ffffffffffffffffffffffffffffffffffffffff1673ffffffffffffffffffffffffffffffffffffffff16815260200190815260200160002060006101000a81548160ff021916908315150217905550816002600083815260200190815260200160002060006101000a81548173ffffffffffffffffffffffffffffffffffffffff021916908373ffffffffffffffffffffffffffffffffffffffff160217905550505b50565b60005481565b6000813590506103a4816105c8565b92915050565b6000602082840312156103bc57600080fd5b60006103ca84828501610395565b91505092915050565b60006103df83836103eb565b60208301905092915050565b6103f481610507565b82525050565b61040381610507565b82525050565b6000610414826104de565b61041e81856104f6565b9350610429836104ce565b8060005b8381101561045a57815161044188826103d3565b975061044c836104e9565b92505060018101905061042d565b5085935050505092915050565b61047081610539565b82525050565b600060208201905061048b60008301846103fa565b92915050565b600060208201905081810360008301526104ab8184610409565b905092915050565b60006020820190506104c86000830184610467565b92915050565b6000819050602082019050919050565b600081519050919050565b6000602082019050919050565b600082825260208201905092915050565b600061051282610519565b9050919050565b600073ffffffffffffffffffffffffffffffffffffffff82169050919050565b6000819050919050565b600060ff82169050919050565b600061055b82610539565b91507fffffffffffffffffffffffffffffffffffffffffffffffffffffffffffffffff82141561058e5761058d610599565b5b600182019050919050565b7f4e487b7100000000000000000000000000000000000000000000000000000000600052601160045260246000fd5b6105d181610543565b81146105dc57600080fd5b5056fea26469706673582212206bf798d03062ecb7b45dddb473828640500d436ede6124d9e26b747b3fd41b0364736f6c63430008040033",
  "immutableReferences": {},
  "source": "pragma solidity >=0.4.22 <0.9.0;\r\n\r\ncontract Faucet {\r\n\r\n    uint public numOfFounders;\r\n    mapping(address => bool) private funders;\r\n    mapping(uint => address) private lutFunders;\r\n\r\n    //this is a special function\r\n    //it's called when you make a tx that doesn't specify\r\n    //function name to call\r\n\r\n    //External function are part of the contract interface\r\n    //which means they can be called via contracts and other tx\r\n\r\n    receive() external payable {}\r\n\r\n    // private -> can be accesible only within the smart contract\r\n    // internal -> can be accesible withing smart contract and also derived smart contract\r\n\r\n    function addFunds() external payable {\r\n        address funder = msg.sender;\r\n\r\n        if (!funders[funder]) {\r\n            uint index = numOfFounders++;\r\n            funders[funder]= true;\r\n            lutFunders[index] = funder;\r\n        }\r\n    }\r\n\r\n    function getAllFunders() external view returns(address[] memory) {\r\n        address[] memory _funders = new address[](numOfFounders);\r\n        \r\n        for (uint i = 0; i < numOfFounders; i++) {\r\n            _funders[i] = lutFunders[i];\r\n        }\r\n\r\n        return _funders;\r\n    }\r\n\r\n    function getFounderAtIndex(uint8 index) external view returns(address) {\r\n        // address[] memory _funders = getAllFunders();\r\n        return lutFunders[index];\r\n    }\r\n}\r\n//Block info\r\n//Nonce - a hash that when comibined with the minHash proofs that \r\n//the block has gone through proof of owrk\r\n//8byts => 64bits\r\n\r\n//pure, view - read-only call, no gas fee\r\n//view - function is the function that will not alter the storage state in any way\r\n//pure - even more strict, indicating that it won't even read the storage state\r\n\r\n//transactions - require gas fees, can generate state changes\r\n\r\n//to talk to the node on the network you can make JSON-RPC http calls\r\n\r\n//public function can be called from inside the smart contract, while external only from outside",
  "sourcePath": "C:\\Users\\ernab\\Desktop\\coding\\online-courses\\web3\\solidity\\faucet\\contracts\\FaucetContract.sol",
  "compiler": {
    "name": "solc",
    "version": "0.8.4+commit.c7e474f2.Emscripten.clang"
  },
  "schemaVersion": "3.4.16",
  "updatedAt": "2025-03-14T04:48:22.540Z",
  "networkType": "ethereum",
  "devdoc": {
    "kind": "dev",
    "methods": {},
    "version": 1
  },
  "userdoc": {
    "kind": "user",
    "methods": {},
    "version": 1
  }
}