{
  "contractName": "Faucet",
  "abi": [
    {
      "inputs": [],
      "name": "numOfFounders",
      "outputs": [
        {
          "internalType": "uint256",
          "name": "",
          "type": "uint256"
        }
      ],
      "stateMutability": "view",
      "type": "function"
    },
    {
      "inputs": [],
      "name": "owner",
      "outputs": [
        {
          "internalType": "address",
          "name": "",
          "type": "address"
        }
      ],
      "stateMutability": "view",
      "type": "function"
    },
    {
      "inputs": [],
      "name": "test3",
      "outputs": [
        {
          "internalType": "uint256",
          "name": "",
          "type": "uint256"
        }
      ],
      "stateMutability": "pure",
      "type": "function"
    },
    {
      "inputs": [],
      "name": "test5",
      "outputs": [
        {
          "internalType": "uint256",
          "name": "",
          "type": "uint256"
        }
      ],
      "stateMutability": "pure",
      "type": "function"
    },
    {
      "inputs": [],
      "name": "testNum",
      "outputs": [
        {
          "internalType": "uint256",
          "name": "",
          "type": "uint256"
        }
      ],
      "stateMutability": "view",
      "type": "function"
    },
    {
      "stateMutability": "payable",
      "type": "receive"
    },
    {
      "inputs": [],
      "name": "emitLog",
      "outputs": [
        {
          "internalType": "bytes32",
          "name": "",
          "type": "bytes32"
        }
      ],
      "stateMutability": "pure",
      "type": "function"
    },
    {
      "inputs": [],
      "name": "addFunds",
      "outputs": [],
      "stateMutability": "payable",
      "type": "function"
    },
    {
      "inputs": [],
      "name": "test1",
      "outputs": [],
      "stateMutability": "nonpayable",
      "type": "function"
    },
    {
      "inputs": [],
      "name": "test2",
      "outputs": [],
      "stateMutability": "nonpayable",
      "type": "function"
    },
    {
      "inputs": [
        {
          "internalType": "uint256",
          "name": "withdrawAmount",
          "type": "uint256"
        }
      ],
      "name": "withdraw",
      "outputs": [],
      "stateMutability": "payable",
      "type": "function"
    },
    {
      "inputs": [],
      "name": "getAllFunders",
      "outputs": [
        {
          "internalType": "address[]",
          "name": "",
          "type": "address[]"
        }
      ],
      "stateMutability": "view",
      "type": "function"
    },
    {
      "inputs": [
        {
          "internalType": "uint8",
          "name": "index",
          "type": "uint8"
        }
      ],
      "name": "getFounderAtIndex",
      "outputs": [
        {
          "internalType": "address",
          "name": "",
          "type": "address"
        }
      ],
      "stateMutability": "view",
      "type": "function"
    }
  ],
  "bytecode": "0x608060405234801561001057600080fd5b50336000806101000a81548173ffffffffffffffffffffffffffffffffffffffff021916908373ffffffffffffffffffffffffffffffffffffffff1602179055506103e8600181905550610b8c806100696000396000f3fe6080604052600436106100ab5760003560e01c80636fbbb55d116100645780636fbbb55d146101945780638da5cb5b146101bf578063a26759cb146101ea578063ae28f1ed146101f4578063f42c13bf1461021f578063ffd445631461024a576100b2565b80630a8e8e01146100b757806317855fbe146100e25780631ad7be821461011f5780632e1a7d4d1461014a57806366e41cb7146101665780636b59084d1461017d576100b2565b366100b257005b600080fd5b3480156100c357600080fd5b506100cc610275565b6040516100d9919061095a565b60405180910390f35b3480156100ee57600080fd5b50610109600480360381019061010491906107a1565b61027e565b60405161011691906108c2565b60405180910390f35b34801561012b57600080fd5b506101346102be565b604051610141919061095a565b60405180910390f35b610164600480360381019061015f9190610778565b6102d0565b005b34801561017257600080fd5b5061017b610367565b005b34801561018957600080fd5b506101926103f7565b005b3480156101a057600080fd5b506101a9610487565b6040516101b691906108dd565b60405180910390f35b3480156101cb57600080fd5b506101d46105cd565b6040516101e191906108c2565b60405180910390f35b6101f26105f1565b005b34801561020057600080fd5b5061020961071a565b604051610216919061095a565b60405180910390f35b34801561022b57600080fd5b50610234610720565b60405161024191906108ff565b60405180910390f35b34801561025657600080fd5b5061025f610748565b60405161026c919061095a565b60405180910390f35b60006064905090565b6000600460008360ff16815260200190815260200160002060009054906101000a900473ffffffffffffffffffffffffffffffffffffffff169050919050565b60006102c8610275565b50600a905090565b8067016345785d8a000081111561031c576040517f08c379a00000000000000000000000000000000000000000000000000000000081526004016103139061093a565b60405180910390fd5b3373ffffffffffffffffffffffffffffffffffffffff166108fc839081150290604051600060405180830381858888f19350505050158015610362573d6000803e3d6000fd5b505050565b60008054906101000a900473ffffffffffffffffffffffffffffffffffffffff1673ffffffffffffffffffffffffffffffffffffffff163373ffffffffffffffffffffffffffffffffffffffff16146103f5576040517f08c379a00000000000000000000000000000000000000000000000000000000081526004016103ec9061091a565b60405180910390fd5b565b60008054906101000a900473ffffffffffffffffffffffffffffffffffffffff1673ffffffffffffffffffffffffffffffffffffffff163373ffffffffffffffffffffffffffffffffffffffff1614610485576040517f08c379a000000000000000000000000000000000000000000000000000000000815260040161047c9061091a565b60405180910390fd5b565b6060600060025467ffffffffffffffff8111156104cd577f4e487b7100000000000000000000000000000000000000000000000000000000600052604160045260246000fd5b6040519080825280602002602001820160405280156104fb5781602001602082028036833780820191505090505b50905060005b6002548110156105c5576004600082815260200190815260200160002060009054906101000a900473ffffffffffffffffffffffffffffffffffffffff16828281518110610578577f4e487b7100000000000000000000000000000000000000000000000000000000600052603260045260246000fd5b602002602001019073ffffffffffffffffffffffffffffffffffffffff16908173ffffffffffffffffffffffffffffffffffffffff168152505080806105bd90610a12565b915050610501565b508091505090565b60008054906101000a900473ffffffffffffffffffffffffffffffffffffffff1681565b60003390506105fe610275565b50600360008273ffffffffffffffffffffffffffffffffffffffff1673ffffffffffffffffffffffffffffffffffffffff16815260200190815260200160002060009054906101000a900460ff166107175760006002600081548092919061066590610a12565b9190505590506001600360008473ffffffffffffffffffffffffffffffffffffffff1673ffffffffffffffffffffffffffffffffffffffff16815260200190815260200160002060006101000a81548160ff021916908315150217905550816004600083815260200190815260200160002060006101000a81548173ffffffffffffffffffffffffffffffffffffffff021916908373ffffffffffffffffffffffffffffffffffffffff160217905550505b50565b60015481565b60007f48656c6c6f20576f726c64000000000000000000000000000000000000000000905090565b60025481565b60008135905061075d81610b28565b92915050565b60008135905061077281610b3f565b92915050565b60006020828403121561078a57600080fd5b60006107988482850161074e565b91505092915050565b6000602082840312156107b357600080fd5b60006107c184828501610763565b91505092915050565b60006107d683836107e2565b60208301905092915050565b6107eb816109bf565b82525050565b6107fa816109bf565b82525050565b600061080b82610985565b610815818561099d565b935061082083610975565b8060005b8381101561085157815161083888826107ca565b975061084383610990565b925050600181019050610824565b5085935050505092915050565b610867816109d1565b82525050565b600061087a6021836109ae565b915061088582610a8a565b604082019050919050565b600061089d6021836109ae565b91506108a882610ad9565b604082019050919050565b6108bc816109fb565b82525050565b60006020820190506108d760008301846107f1565b92915050565b600060208201905081810360008301526108f78184610800565b905092915050565b6000602082019050610914600083018461085e565b92915050565b600060208201905081810360008301526109338161086d565b9050919050565b6000602082019050818103600083015261095381610890565b9050919050565b600060208201905061096f60008301846108b3565b92915050565b6000819050602082019050919050565b600081519050919050565b6000602082019050919050565b600082825260208201905092915050565b600082825260208201905092915050565b60006109ca826109db565b9050919050565b6000819050919050565b600073ffffffffffffffffffffffffffffffffffffffff82169050919050565b6000819050919050565b600060ff82169050919050565b6000610a1d826109fb565b91507fffffffffffffffffffffffffffffffffffffffffffffffffffffffffffffffff821415610a5057610a4f610a5b565b5b600182019050919050565b7f4e487b7100000000000000000000000000000000000000000000000000000000600052601160045260246000fd5b7f6f6e6c79206f776e65722063616e2063616c6c20746869732066756e6374696f60008201527f6e00000000000000000000000000000000000000000000000000000000000000602082015250565b7f43616e6e6f74207769746864726177206d6f7265207468656e20302e3120455460008201527f4800000000000000000000000000000000000000000000000000000000000000602082015250565b610b31816109fb565b8114610b3c57600080fd5b50565b610b4881610a05565b8114610b5357600080fd5b5056fea2646970667358221220d8aa36c967edd9d9ed77babef144c0d21ec95e2f116b1c809c63e92856ca011264736f6c63430008040033",
  "immutableReferences": {},
  "source": "// SPDX-License-Identifier: MIT \r\npragma solidity >=0.4.22 <0.9.0;\r\n\r\nimport \"./Owned.sol\";\r\nimport \"./Logger.sol\";\r\nimport \"./IFaucet.sol\";\r\n\r\ncontract Faucet is Owned, Logger, IFaucet {\r\n    uint public numOfFounders;\r\n\r\n    mapping(address => bool) private funders;\r\n    mapping(uint => address) private lutFunders;\r\n\r\n    modifier limitWithdraw(uint withdrawAmount) {\r\n        require(\r\n            withdrawAmount <= 100000000000000000, \r\n                \"Cannot withdraw more then 0.1 ETH\"\r\n        );\r\n        _;\r\n    }\r\n\r\n    //this is a special function\r\n    //it's called when you make a tx that doesn't specify\r\n    //function name to call\r\n\r\n    //External function are part of the contract interface\r\n    //which means they can be called via contracts and other tx\r\n\r\n    receive() external payable {}\r\n\r\n    function emitLog() public override pure returns (bytes32) {\r\n        return \"Hello World\";\r\n    }\r\n\r\n    // function transerOwnership(address newOwner) external onlyOwner() {\r\n    //     owner = newOwner;\r\n    // }\r\n\r\n    // private -> can be accesible only within the smart contract\r\n    // internal -> can be accesible withing smart contract and also derived smart contract\r\n\r\n    function addFunds() override external payable {\r\n        address funder = msg.sender;\r\n        test3();\r\n\r\n        if (!funders[funder]) {\r\n            uint index = numOfFounders++;\r\n            funders[funder]= true;\r\n            lutFunders[index] = funder;\r\n        }\r\n    }\r\n\r\n    function test1() external onlyOwner {\r\n        //some managing stuff that only admin should have access to\r\n    }\r\n\r\n    function test2() external onlyOwner {\r\n        //some managing stuff that only admin should have access to\r\n    }\r\n\r\n    function withdraw (uint withdrawAmount) override external payable limitWithdraw(withdrawAmount) {\r\n        payable(msg.sender).transfer(withdrawAmount);\r\n    }\r\n\r\n    function getAllFunders() external view returns(address[] memory) {\r\n        address[] memory _funders = new address[](numOfFounders);\r\n        \r\n        for (uint i = 0; i < numOfFounders; i++) {\r\n            _funders[i] = lutFunders[i];\r\n        }\r\n\r\n        return _funders;\r\n    }\r\n\r\n    function getFounderAtIndex(uint8 index) external view returns(address) {\r\n        // address[] memory _funders = getAllFunders();\r\n        return lutFunders[index];\r\n    }\r\n}\r\n//Block info\r\n//Nonce - a hash that when combined with the minHash proofs that \r\n//the block has gone through proof of work\r\n//8byts => 64bits\r\n\r\n//pure, view - read-only call, no gas fee\r\n//view - function is the function that will not alter the storage state in any way\r\n//pure - even more strict, indicating that it won't even read the storage state\r\n\r\n//transactions - require gas fees, can generate state changes\r\n\r\n//to talk to the node on the network you can make JSON-RPC http calls\r\n\r\n//public function can be called from inside the smart contract, while external only from outside\r\n",
  "sourcePath": "C:\\Users\\ernab\\Desktop\\coding\\online-courses\\web3\\solidity\\faucet\\contracts\\FaucetContract.sol",
  "compiler": {
    "name": "solc",
    "version": "0.8.4+commit.c7e474f2.Emscripten.clang"
  },
  "schemaVersion": "3.4.16",
  "updatedAt": "2025-06-25T18:34:15.577Z",
  "devdoc": {
    "kind": "dev",
    "methods": {},
    "version": 1
  },
  "userdoc": {
    "kind": "user",
    "methods": {},
    "version": 1
  }
}