{
  "contractName": "Test",
  "abi": [
    {
      "inputs": [
        {
          "internalType": "uint256",
          "name": "testNumber",
          "type": "uint256"
        }
      ],
      "name": "test",
      "outputs": [
        {
          "internalType": "uint256",
          "name": "",
          "type": "uint256"
        }
      ],
      "stateMutability": "pure",
      "type": "function"
    },
    {
      "inputs": [],
      "name": "test2",
      "outputs": [
        {
          "internalType": "uint256",
          "name": "data",
          "type": "uint256"
        }
      ],
      "stateMutability": "pure",
      "type": "function"
    }
  ],
  "bytecode": "0x608060405234801561001057600080fd5b506101a0806100206000396000f3fe608060405234801561001057600080fd5b50600436106100365760003560e01c806329e99f071461003b57806366e41cb71461006b575b600080fd5b610055600480360381019061005091906100f6565b610089565b604051610062919061012e565b60405180910390f35b6100736100c6565b604051610080919061012e565b60405180910390f35b60006004604051505060006040518060600160405280600160ff168152602001600260ff168152602001600360ff16815250905082915050919050565b60006040516468656c6c6f6000820152600081015191505090565b6000813590506100f081610153565b92915050565b60006020828403121561010857600080fd5b6000610116848285016100e1565b91505092915050565b61012881610149565b82525050565b6000602082019050610143600083018461011f565b92915050565b6000819050919050565b61015c81610149565b811461016757600080fd5b5056fea2646970667358221220fc04adc7ff63aa7b5af14ee8c565464ea88ce43901acd1b95d5dca4b6c7ddcce64736f6c63430008040033",
  "immutableReferences": {},
  "source": "pragma solidity >=0.4.22 <0.9.0;\r\n\r\ncontract Test {\r\n\r\n    function test(uint testNumber) external pure returns(uint) {\r\n\r\n        assembly {\r\n            let _number := 4\r\n            let _fmp := mload(0x40)\r\n        }\r\n\r\n        uint8[3] memory items = [1,2,3];\r\n\r\n        return testNumber;\r\n    }\r\n\r\n        function test2() external pure returns(uint data) {\r\n\r\n\r\n        assembly {\r\n            let fmp := mload(0x40)\r\n\r\n            mstore(add(fmp, 0x00), 0x68656C6C6F)\r\n            data := mload(add(fmp, 0x00))\r\n        }\r\n    }\r\n}",
  "sourcePath": "C:\\Users\\ernab\\Desktop\\coding\\online-courses\\web3\\solidity\\faucet\\contracts\\Test.sol",
  "compiler": {
    "name": "solc",
    "version": "0.8.4+commit.c7e474f2.Emscripten.clang"
  },
  "schemaVersion": "3.4.16",
  "updatedAt": "2025-06-25T18:34:15.590Z",
  "devdoc": {
    "kind": "dev",
    "methods": {},
    "version": 1
  },
  "userdoc": {
    "kind": "user",
    "methods": {},
    "version": 1
  }
}